:020000040800F2
:100000006006002045010008B13700088932000869
:10001000AD370008E5020008D13C000800000000F0
:10002000000000000000000000000000B9370008D8
:100030000103000800000000B5370008BD370008C4
:100040005F0100085F0100085F0100085F01000810
:100050005F0100085F0100085F0100085F01000800
:100060005F0100085F0100085F010008E902000865
:100070005F0100085F0100085F010008F502000849
:100080005F0100085F010008B90100085F01000876
:100090005F0100085F0100085F0100085F010008C0
:1000A0005F0100085F0100085F0100085F010008B0
:1000B000C5370008D13700085F0100085F0100085C
:1000C0005F0100085F0100085F0100085F01000890
:1000D0005F010008C53C00085F0100085F010008DF
:1000E0005F0100085F0100085F0100085F01000870
:1000F0005F0100085F0100085F0100085F01000860
:100100005F0100085F0100085F0100085F0100084F
:100110005F0100085F0100085F0100085F0100083F
:100120005F0100085F0100085F0100085F0100082F
:10013000DFF80CD000F02EF800480047FD3C000826
:10014000600600200648804706480047FEE7FEE7B5
:10015000FEE7FEE7FEE7FEE7FEE7FEE7FEE7FEE777
:10016000C13700083101000830B50B4601460020B8
:100170002022012409E021FA02F59D4205D303FA69
:1001800002F5491B04FA02F52844151EA2F10102EA
:10019000F1DC30BD064C074D06E0E06840F001039D
:1001A00094E8070098471034AC42F6D3FFF7C4FF39
:1001B000104500083045000880B540F25000C2F2FA
:1001C000000000F025FA40F28000C2F20000BDE815
:1001D000804000F01DBA0000B0B504460068816898
:1001E000C90709D0816821F00101816001F01EF882
:1001F00021688968C90701D10020B0BD054602E029
:100200008068C007F8D001F011F8411B206803296D
:10021000F6D38168C907F3D0A06A40F01000A0624D
:10022000E06A40F00100E0620120B0BDB0B582B0EC
:1002300004460020019021688A68D2074FD188685F
:1002400040F00100886040F22000C2F20000006827
:100250004DF68361C4F21B31A0FB0101880C0190B3
:100260000198A0B1019801380190019878B10198E6
:1002700001380190019850B101980138019001981E
:1002800028B101980138019001980028EAD100F0C6
:10029000CDFF21688968C9071CD1054603E000BF6E
:1002A0008068C0071AD100F0C1FF411B20680329F4
:1002B000F6D38168C907F3D1A06A40F01000A062AC
:1002C000E06A40F00100E062002084F82400012090
:1002D00002B0B0BD002002B0B0BD00BF002002B02F
:1002E000B0BD0000FEE7000040F2B000C2F2000026
:1002F00000F098BC40F2F400C2F2000000F092BCA2
:1003000070470000EFF3108072B600BFFEE70000F8
:1003100070B582B004460020019094F824000128B2
:1003200004D10225284602B070BD00BF012084F828
:1003300024002046FFF750FF2046FFF777FF0546D1
:10034000002867D1A06A41F2021188430230A062FE
:1003500040F22000C2F200000668022001F024F8FA
:10036000B6FBF0F0400001900198A0B1019801386F
:100370000190019878B1019801380190019850B12D
:10038000019801380190019828B101980138019035
:1003900001980028EAD12068816841F00801816055
:1003A00000F044FF21688A6812070DD4886840F085
:1003B0000400886000F03AFF21688968490713D477
:1003C00001206FF0030121E0064602E08868000783
:1003D000ECD500F02BFF801B21680B28F6D3886832
:1003E0000007F3D50EE000BF064602E08068400734
:1003F000E6D500F01BFF811B20680B29F6D381682E
:100400004907F3D5012510206FF01201A26A1140AF
:100410000843A062002084F82400284602B070BD82
:100420007047000080B590F82420012A04BF022004
:1004300080BD026891F808C05368BCF1010F23F039
:10044000400308BF40335360D2F804C04FF6E05376
:10045000CFF63F730CEA030CD1E9003E43EA0C03EC
:1004600043EA0E035360CB6853620969916200212D
:1004700080F82410084680BD10B581B0002200929B
:1004800090F82420012A03D10221084601B010BDB2
:100490004B680122062B80F8242017D8D0F800C022
:1004A00003EB83035A1F1F23DCF834E003FA02F442
:1004B0000B682EEA040403FA02F22243CCF834203B
:1004C000092B03EB430219D936E000BFD0F800C076
:1004D0000C2B03EB83021DD8233A1F23DCF830E0FA
:1004E00003FA02F40B682EEA040403FA02F2224330
:1004F000CCF83020092B03EB43021DD8DCF8103078
:10050000072489689440A34391401943CCF8101004
:10051000002130E0413A1F23DCF82CE003FA02F41A
:100520000B682EEA040403FA02F22243CCF82C20D2
:10053000092B03EB4302E1D9DCF80CE01E3A072457
:10054000896894402EEA0404914023F0010221437B
:10055000102ACCF80C100DD142F20841C4F201016E
:10056000A1F1080294450DD0816A41F02001816219
:10057000012100E00021002280F82420084601B07B
:1005800010BD00BF0A68120230D40A68102B42F472
:1005900000020A602CD140F22001C2F20001096879
:1005A0004DF68362C4F21B32A1FB0212910C01EBE7
:1005B0008101490000910099E1B100990139009150
:1005C0000099C9B10099013900910099B1B1009920
:1005D00001390091009999B1009901390091009970
:1005E00000294FF00001E8D1C5E700BF0021C2E7B4
:1005F0000021C0E70021BEE70021BCE70021BAE7E7
:100600000021B8E7704700000068C06C7047000028
:1006100070B50446006805684668B10627D515F030
:10062000020124D0A16AC90603D4A16A41F4007171
:10063000A162816801F46021B1F5602F10D1217BA6
:1006400071B9416821F020014160A06A20F48070F6
:10065000A062A06AC00403D4A06A40F00100A062B6
:100660002046FFF7CFFF20686FF0120101603106CE
:1006700033D515F0040130D0A16AC90603D4A16AAC
:1006800041F40051A162816801F4E041B1F5E04F0D
:1006900010D1416821F080014160A06A20F48050AF
:1006A000A062A06AC00511D4A06A40F00100A06257
:1006B0000CE000BF4168490508D4816801F460215D
:1006C000B1F5602F02D1217B0029E2D02046FFF74F
:1006D000A7FE20686FF00C01016070060ED515F0C2
:1006E000010008BF70BDA06A40F48030A0622046BF
:1006F00000F0BEF820686FF00101016070BD0000DD
:10070000B0B5002800F0B2800446806A20B12168AC
:100710008868C0070BD114E00020E06284F8240050
:10072000204600F0C1F821688868C00709D08868B1
:1007300020F00100886000F079FD21688A68D20706
:1007400030D1A06AC00644D4A06A41F2021290439C
:100750000230A062E36981F0804080F49E3083F42F
:100760004022104308BF4FF40023D4E9010243EABA
:10077000000C531EB3FA83F35D091346B2F5807F74
:1007800018BF2B02207D257B01284CEA450030D183
:1007900035B3A56A45F02005A562E56A45F0010577
:1007A000E56226E0054602E08868C007C9D000F08F
:1007B0003DFD401B21680328F6D38868C007F3D0AD
:1007C000A06A40F01000A062E06A40F00100E06220
:1007D000A06AA06A40F01000A0620120B0BD00BF76
:1007E000D4F818C04EF60005CFF6FF7505EB4C3572
:1007F0002B434D68B2F5807F25F4694543EA050334
:100800004B608B684FF2FD75CFF6E17503EA050387
:1008100043EA00038B6001D0012A07D1226900233B
:10082000CFF6F07303EB025201E000BF0022CB6A67
:1008300023F470031A43CA62896840F6FE62CFF659
:100840001F721140814207D10020E062A16A01229B
:1008500062F30101A162B0BDA06A40F0100020F077
:100860000200A062E06A40F00100E0620120B0BD39
:1008700080B5006842F60001C4F20101884201D04F
:1008800080BD00BF40F28000C2F20000FFF7BCFE56
:10089000C0087C2888BF80BD40F22E00C2F2000054
:1008A0000121018080BD00002DE9F04186B00446A1
:1008B000006842F60001C4F2010188424FF00001D5
:1008C000CDE90411CDE902115AD042F20041C4F23F
:1008D000010188427DD141F21800C4F20200016892
:1008E00040F6000641F4007101600168C4F201069F
:1008F00001F4007101910199016802AD41F010010C
:10090000016001684FF0200801F010010191019988
:100910000168032741F0080101600068294600F0E2
:1009200008000190019806F50060CDF80880039753
:1009300000F078FB06F580602946CDE9027700F0EB
:1009400071FB40F2B0050820C2F20005C4F20200BB
:100950000021C5E9000105F1080080224FF48073F1
:100960004FF4806780E88E012846E96100F0A8FA1C
:10097000002818BFFFF7C6FC25626C6221E000BFAB
:1009800041F21800C4F20200016841F48061016084
:10099000016801F4806101910199016841F004014D
:1009A0000160006802A900F0040001900198102085
:1009B00002900320039040F60000C4F2010000F012
:1009C00031FB12200021002200F0B2FC122000F0C6
:1009D0009BFC06B0BDE8F08110B5044690F82400F9
:1009E000012804BF022010BD012084F82400204605
:1009F000FFF71CFC20B1002184F8241010BD00BFBB
:100A000042F2044C2068A16AC4F2010C40F6017263
:100A100091430CF57F7201F580719042A16237D04D
:100A2000A16A21F48011A1624168490504D5A16A37
:100A3000012363F30D31A162A16A0023C9044FF0C1
:100A4000000144BFE16A21F00601E1626FF002019A
:100A500084F824300160416841F0200141608168E0
:100A600001F46021B1F5602F06D190420AD1DCF883
:100A7000001011F4702F05D0816841F4801181605D
:100A8000002010BD816841F4A0018160002010BDEC
:100A9000DCF8001011F4702FC2D0A16A41F480116B
:100AA000A162DCF800104905C1D4C5E7014690F801
:100AB0002100022816D10868D1E90FC3026822F08C
:100AC0000E020260026822F001020260012000FAB8
:100AD00003F2CCF8042081F821000020002281F8E4
:100AE00020207047042088630120002281F8202004
:100AF0007047000080B590F82110022928D10268C3
:100B000040F2040C1368C4F2020C23F00E031360CD
:100B100013680CF17C018A4223F0010111601BD99A
:100B200040F20841C4F202018A4249D040F21C411D
:100B3000C4F202018A4247D040F23041C4F20201BD
:100B40008A4245D14FF48073CCF800345DE000BF99
:100B500004218163012080BD4321C4F202018A4245
:100B60000EDD6B21C4F202018A421BDC4421C4F277
:100B700002018A423CD05821C4F202018A4233E089
:100B80000821C4F202018A4236D01C21C4F20201BB
:100B90008A4237D03021C4F202018A4224D14FF474
:100BA000807230E06C21C4F202018A4226D080219A
:100BB000C4F202018A4217D14FF0807223E000BFD5
:100BC0000123CCF8003420E01023CCF800341CE0E2
:100BD0000CF588614FF480338A4208BF4FF480538C
:100BE000CCF8003411E000BF4FF480320BE000BFBE
:100BF0004FF4805207E000BF012204E04FF480125E
:100C000001E000BF1022CCF80020012180F8211063
:100C1000426B002180F820100AB19047002108465D
:100C200080BD000010B5D0E90FE3D0F800C0DEF8B9
:100C30000020DCF80010DA4054072DD511F0040430
:100C40002AD0DCF80010890605D4DCF8001021F069
:100C50000401CCF800100422C4F2020202F17C016B
:100C60008C454DD940F20841C4F202018C4500F098
:100C7000B18040F21C41C4F202018C4500F0AE800C
:100C800040F23041C4F202018C4540F0AB804FF499
:100C90008061C2F80014F9E0940747D511F002040E
:100CA00044D0DCF80010890608D4DCF8001021F0EC
:100CB0000A01CCF80010012180F821100422C4F2AE
:100CC000020202F17C018C454ED940F20841C4F287
:100CD00002018C4500F0B68040F21C41C4F20201D2
:100CE0008C4500F0B38040F23041C4F202018C45E3
:100CF00040F0B0804FF40071C2F80014D8E000BF9B
:100D00004321C4F202018C4544DD6B21C4F202018F
:100D10008C4551DC4421C4F202018C4500F0A680D0
:100D20005821C4F202018C4568E000BF120740F16F
:100D3000C58011F0080108BF10BDDCF8001021F0DB
:100D40000E01CCF80010012101FA03F2CEF80420C4
:100D5000816380F82110016B0022002980F8202097
:100D600040F09680AAE000BF4321C4F202018C4506
:100D700048DD6B21C4F202018C4555DC4421C4F2EC
:100D800002018C4500F088805821C4F202018C4594
:100D900076E000BF0821C4F202018C456AD01C2114
:100DA000C4F202018C456FD03021C4F202018C459F
:100DB00024D14FF4806168E06C21C4F202018C45BB
:100DC0005AD08021C4F202018C4517D14FF08061C6
:100DD0005BE000BF0421C2F8001457E04021C2F8D4
:100DE000001453E002F588634FF480219C4508BF4E
:100DF0004FF48041C2F8001448E000BF4FF4802156
:100E000043E000BF0821C4F202018C4548D01C21F8
:100E1000C4F202018C4549D03021C4F202018C4554
:100E20002ED14FF4007142E06C21C4F202018C45D6
:100E300038D08021C4F202018C4521D14FF00071DD
:100E400035E000BF0221C2F8001431E02021C2F8D1
:100E500000142DE002F588634FF400319C4508BF73
:100E60004FF40051C2F8001422E000BF4FF480415B
:100E70000BE000BF042108E04FF4800105E000BF53
:100E80004FF4003113E000BF40211160C16AA9B1E5
:100E9000BDE81040084700BF4FF4005107E000BF15
:100EA000022104E04FF4001101E000BF2021116095
:100EB000816A0022002980F82020E9D110BD0000BD
:100EC000014600284FF0010008BF70472DE9F047A8
:100ED00040F2000CC4F2020C0A684FF6F8330CF52D
:100EE000816ECBF6FD73724538BF03F5806303EB6B
:100EF000020E4CF6CD43CCF6CC43AEFB033E6FF076
:100F000003060CF5806506EA9E06D1E901A9D1F831
:100F10000C803CBF0025C4F20205C1E90F56022631
:100F200081F82160166843F6F075AE4346EA0A067A
:100F3000D1E9045746EA090646EA0806D1E906431C
:100F40002E43374327433B43136000228A6381F8D3
:100F5000210081F820200020BDE8F0477047000004
:100F6000F0B590F820C0BCF1010F32D04FF0010E67
:100F700080F820E090F821C0BCF1010F26D14FF09D
:100F8000020C80F821C04FF0000CC0F838C0D0E946
:100F900000C4C56AC66BDCF80070102C27F001078E
:100FA000CCF80070006C0EFA00F070600846CCF8C7
:100FB000043004BF10460A46CCF80800CCF80C20D8
:100FC000DCF8000045B140F00E000DE0002180F893
:100FD00020100220F0BD00BF20F00400CCF800007B
:100FE000DCF8000040F00A00CCF80000DCF800005B
:100FF00040F00100CCF800000020F0BDB0B5044680
:1010000000F014F9054640F21800C2F20000007822
:10101000611C18BF044400BF00F008F9401BA04247
:10102000FAD3B0BD2DE9F04F82B0D1F800C0BCF1C9
:10103000000F00F0F180A0F1804241F60045A2F5DA
:101040008432C4F2010540F2004E4FEAB224062772
:10105000A842C4F2010E08BF0527052C4FF000047A
:101060004FF001084FF00F034FF0000A4FF0000B54
:1010700038BF4FEAB22700970AE000BFD1F800C09E
:101080000AF1010A3CFA0AF204F1040400F0C480F7
:1010900008FA0AF91CEA090FF0D04E684FF6FF7201
:1010A000C1F21002964211DC122E55D8DFE806F08C
:1010B000340A444854545454545454545454545476
:1010C000544C5000D1F80CB046E000BF4FF6FF7210
:1010D000C1F2210296420FDC0022C1F211029642B7
:1010E0001AD00022C1F21202964215D00022C1F29B
:1010F0002102964210D02FE00022C1F22202964235
:101100000AD00022C1F23102964205D00022C1F27B
:101110003202964220D100BF8A684AB1012A14BF28
:10112000C0F81490C0F810904FF0080B14E000BF06
:101130004FF0040B10E000BFCA6802F1080B0BE08F
:101140004FF0000B08E000BFCA6802F1040B03E097
:10115000CA6802F10C0B00BF22460646BAF1080F1E
:1011600024BF203A0436376803FA02F5AF430BFA7E
:1011700002F23A433260CA79D2067FF57FAF41F27C
:101180001807C4F202073A684FF6084342F001021A
:101190003A603A68CFF6FF7302F001020192019AB9
:1011A0002AF0030272440F25D75804F00C06B5400C
:1011B000AF43009D05FA06F63743D7504E6840F21C
:1011C0000C45F202DEF8082054BF22EA090242EA86
:1011D0000902CEF80820C4F201052A68B70254BFFC
:1011E00022EA090242EA09022A60DEF80420B70373
:1011F00054BF22EA090242EA0902CEF804200F2372
:10120000DEF80020F70354BF22EA090242EA09028D
:10121000CEF8002032E700BF02B0BDE8F08F00003A
:10122000002A08BF090401617047000040F25820FD
:10123000C2F200000068704740F2180040F25821E6
:10124000C2F20000C2F2000100780A68104408608F
:101250007047000080B542F20000C4F2020001684D
:1012600041F010010160032000F08EF80F2000F023
:1012700005F800F027F8002080BD000070B540F2AE
:101280001806C2F2000640F220013278C2F20001D4
:101290004FF47A730968B3FBF2F20446B1FBF2F142
:1012A000084600F09DFC0F2C4FF0010508D838B916
:1012B0004FF0FF3021460022002500F039F874601D
:1012C000284670BD82B041F21800C4F202000168E5
:1012D000022241F001010160016801F00101019168
:1012E0000199416841F080514160406800F08050B0
:1012F000009000980420C4F20100016862F31A61B2
:10130000016002B070470000002848BF7047C1B2BA
:1013100000F01F00012202FA00F04EF20012CEF29D
:10132000000242EAD10121F0030108607047000089
:1013300010B54EF60C5CCEF2000CDCF80030C3F3B6
:10134000022E8EF00704042C28BF0424BEF10303F0
:101350004FF0FF3E0EFA04F438BF0023A14399403A
:101360000EFA03F39A43114300F00F0200F16043B9
:101370000901043A03F564436244002848BF02F1BE
:101380000C03197010BD00004EF60C51CEF2000196
:101390000A684FF6FF031A4060F30A2242F08060A9
:1013A00040F0FD700860704780B5411E0F294FF076
:1013B000000039D8DFE801F00C2A3808383838083E
:1013C000383838383838383ABDE8804000F002BA4A
:1013D00041F20400C4F20200C16940F202320A4044
:1013E000B2F5817F04BF4FF4004080BD01F440712D
:1013F000B1F5407F4CD0B1F5007F51D1006A49F67C
:101400004041800701EAE07080BD00BF00F0CEF9E6
:1014100041F20401C4F2020109680222C1F38131E0
:1014200002EB4101B0FBF1F080BD00BF41F20401CD
:10143000C4F202010A6851F8040CC0015CBF00202C
:1014400080BDC2F3834017A3185CD20306D440F6D4
:101450000012C0F23D0250430CE000BF0A6815A321
:10146000C2F340429A5C41F20023C0F27A03B3FB1C
:10147000F2F250430968490248BF80BD4AF6AB21E9
:101480004000CAF6AA21A0FB0101480880BD00BFA8
:1014900050F8040C4FF22441800301EAE07080BD53
:1014A000002080BD02030405060708090A0B0C0D85
:1014B0000E0F1010010200002DE9F04182B0044629
:1014C000007841F21C06C007C4F202064AD0306818
:1014D00010F0805808D1306840F08050306030689B
:1014E00000F080500190019847F20007C4F2000715
:1014F0003868C00512D4386840F480703860FFF74F
:1015000095FE05463868C00508D4FFF78FFE401BDE
:101510006428F7D9032002B0BDE8F081706810F4A8
:10152000407012D0616801F4407188420DD070683B
:1015300040F24042C4F24222012320F44071136081
:101540000023C007136071602AD17068616820F4BD
:1015500040700843B8F1000F706003D1306820F08C
:10156000805030602068810707D556F8181CA268A3
:1015700021F44041114346F8181CC00604D4002051
:1015800002B0BDE8F08100BF56F8180C616920F484
:101590008000084346F8180C002002B0BDE8F08136
:1015A000FFF744FE054641F2883700BF70688007A8
:1015B000CBD4FFF73BFE401BB8424FF00300F5D9F8
:1015C000EBE700002DE9F04381B0002800F08580B2
:1015D00042F20008C4F202080446D8F800000D46A2
:1015E00000F0070088420CD2D8F8000020F0070075
:1015F0002843C8F80000D8F8000000F00700A8420F
:101600006BD1206841F204098107C4F2020917D5A1
:10161000410705D5D9F8001041F4E061C9F8001080
:10162000010705D5D9F8001041F46051C9F8001040
:10163000D9F80010A26821F0F0011143C9F8001098
:10164000C00741D1D8F8000000F00700A8420CD92B
:10165000D8F8000020F007002843C8F80000D8F8A8
:10166000000000F00700A84237D12068410707D5E5
:10167000D9F80010E26821F4E0611143C9F80010C4
:10168000000708D5D9F80000216920F4605040EA2D
:10169000C100C9F80000D9F8002002F00C000828A9
:1016A00041F20020C0F27A0050D144F2DA43C2F392
:1016B0008341C0F60003595CD2033BD440F60010CE
:1016C000C0F23D00484341E0606802280AD001288A
:1016D0002AD159F8041C890308D4012001B0BDE8BF
:1016E000F08300BF59F8041C8901F6D5D9F8001021
:1016F00021F003010843C9F80000FFF797FD0646F3
:1017000041F28837D9F80000616800F00C00B0EBB6
:10171000810F97D0FFF78AFD801BB842F2D90320D2
:1017200001B0BDE8F08300BF59F8041C8907D4D587
:10173000DCE700BFD9F8002044F2D843C2F34042AE
:10174000C0F600039A5C4843B0FBF2F0D9F80010F1
:1017500044F2C042C1F30311C0F60002515C40F2F2
:10176000200220FA01F140F21C00C2F200000068E1
:10177000C2F200021160FFF781FD002001B0BDE858
:10178000F083000040F2200041F20401C2F20000A8
:10179000C4F202010068096844F2D042C1F3022198
:1017A000C0F60002515CC8407047000040F22000C3
:1017B00041F20401C2F20000C4F2020100680968AB
:1017C00044F2D042C1F3C221C0F60002515CC840CD
:1017D0007047000041F2040CC4F2020CDCF8003047
:1017E00003F00C00082841F20020C0F27A0018BF74
:1017F000704744F2DA41C3F38342C0F600018A5CC9
:10180000D90305D440F60010C0F23D0050437047A4
:10181000DCF8001044F2D843C1F34041C0F60003A5
:10182000595C5043B0FBF1F0704700002DE9F041E6
:1018300082B0002868D00446007841F20006C00754
:10184000C4F2020625D0706800F00C0004281BD0FA
:10185000706800F00C00082802D17068C00313D42F
:101860006068002800F06881B0F5A02F00F07C814E
:10187000B0F5803F00F07C81306820F4803030602B
:10188000306820F4802076E13068800301D56068FC
:10189000D0B32078800718D5706810F00C0F07D0EF
:1018A000706800F00C0008286ED17068C0036BD41B
:1018B0003068800702D52069012825D13068616928
:1018C00020F0F80040EAC1003060207800071FD403
:1018D0002078400732D4E56995B1706800F00C00BB
:1018E000082840F08F80012D0ED07068216A00F426
:1018F00080328A4208D1616A00F47010884203D1B4
:10190000002002B0BDE8F081012002B0BDE8F08106
:10191000A069002862D00020C4F242200121C0F852
:101920008014FFF783FC0546706A800700F18C8005
:10193000FFF77CFC401B0228F6D92AE1F06910F081
:10194000805808D1F06940F08050F061F06900F0F3
:1019500080500090009847F20007C4F200073868F2
:10196000C00529D4386840F480703860FFF75EFC09
:10197000054600BF3868C0051ED4FFF757FC401B62
:101980006428F7D905E100BF2069002840F2000073
:10199000C4F2422000F0828001210160FFF746FC82
:1019A000054600BF306880073FF588AFFFF73EFC73
:1019B000401B0228F6D9ECE0E068002800F08080A7
:1019C000052800F09780012800F09880306A20F008
:1019D00001003062306A20F0040092E00020C4F27E
:1019E00042200021C0F88014FFF720FC054600BF0C
:1019F000706A80077FF56CAFFFF718FC401B022868
:101A0000F6D9C6E00027C4F2422700203866FFF767
:101A10000DFC022D05460BD13068800140F1BE80DF
:101A2000FFF704FC401B02284FF00300F4D968E7DD
:101A3000306880017FF564AFFFF7F8FB401B022898
:101A40004FF00300F4D95CE740F22000C2F200003E
:101A5000006844F6D351C1F26201A0FB0101480ABB
:101A6000019000BF00BF0198411E002801913FF482
:101A70002FAF00BF0198411E002801913FF428AF0D
:101A800000BF0198411E002801913FF421AF00BF23
:101A90000198411E00280191E4D119E7002101605D
:101AA000FFF7C4FB054600BF306880077FF50DAF28
:101AB000FFF7BCFB401B02284FF00300F4D920E7DE
:101AC000306A20F001003062306A20F00400306299
:101AD000FFF7ACFB054641F2883700BF306A80074C
:101AE00020D5FFF7A3FB401BB8424FF00300F5D908
:101AF00007E700BF306A40F004003062306A40F00F
:101B000001003062FFF792FB054641F2883700BFC3
:101B1000306A800706D4FFF789FB401BB842F7D92B
:101B200037E000BFB8F1000F7FF4D5AEF06920F0C8
:101B30008050F061CFE600BF306820F48030306024
:101B4000306820F480203060FFF770FB054600BF4E
:101B5000306880037FF59DAEFFF768FB401B64286B
:101B60004FF00300F4D9CCE6306840F480203060B8
:101B7000306840F480303060FFF758FB054600BF06
:101B8000306880033FF585AEFFF750FB401B6428AB
:101B9000F6D9032002B0BDE8F08100BF206AB0F59D
:101BA000803F05D17168A26821F400311143716052
:101BB0007168626A21F47411114308437060012056
:101BC0003866FFF733FB0446306880013FF598AE76
:101BD000FFF72CFB001B02284FF00300F4D990E61E
:101BE000411E0020B0EB116F1CBF012070474EF268
:101BF0001002CEF2000251604EF62351CEF20001E7
:101C0000F0230B700721906011607047704700004F
:101C10007047000010B590F83C20012A4FF00202F6
:101C20003FD080F83D200268D2F804E0D2F808C026
:101C30000C682EF07003234340F6FF34C4F2000416
:101C4000A242536010DCB2F1804F1FD040F200433B
:101C5000C4F200039A4219D040F60003C4F2000314
:101C60009A4213D017E000BF40F60043C4F20003CD
:101C70009A420BD043F20043C4F201039A4205D0CA
:101C800042F60043C4F201039A4204D149682CF0A1
:101C90008003194391600121002280F83D1080F8F3
:101CA0003C20104610BD0000002804BF01207047F2
:101CB00010B5044690F83D0028B9002084F83C0097
:101CC000204600F01FF8022084F83D002068211D06
:101CD00001F084FD012084F8460084F83E0084F879
:101CE0003F0084F8400084F8410084F8420084F802
:101CF000430084F8440084F8450084F83D00002047
:101D000010BD000080B584B0006840F60041C4F208
:101D10000001884220D040F20041C4F20001884214
:101D20002AD0B0F1804F24D141F21C00C4F202004D
:101D30000168002241F0010101600068002100F00B
:101D40000100039003981C20FFF7F2FA1C2004B056
:101D5000BDE88040FFF7D8BA41F21C00C4F202008F
:101D6000016841F008010160006800F0080001907E
:101D7000019804B080BD00BF41F21C00C4F2020013
:101D80000168002241F0020101600068002100F0BA
:101D90000200029002981D20FFF7CAFA1D2004B02D
:101DA000BDE88040FFF7B0BA90F83D1001291CBF94
:101DB00001207047022180F83D10006840F6FF3294
:101DC000C168C4F20002904241F00101C1600FDC21
:101DD000B0F1804F1ED040F20041C4F200018842B1
:101DE00018D040F60001C4F20001884212D018E079
:101DF00040F60041C4F2000188420BD043F200419A
:101E0000C4F20101884205D042F60041C4F201014A
:101E1000884206D1816801F00701062904BF00202D
:101E20007047016841F00101016000207047000027
:101E30000146006841F21113C26822F00102C2603B
:101E4000026A1A4204D00122002081F83D20704726
:101E5000026A40F244431A42F5D1026822F00102BC
:101E600002600122002081F83D20704780B590F883
:101E70003C20012A4FF0020200F0C28080F83D2091
:101E8000D0F800C04FF67772DCF8083023EA02027F
:101E9000CCF808200B684F2B28DC1F2B44DD202BAF
:101EA00045D0302B43D0402B40F0AC80D1F804E03B
:101EB000C968DCF82030DCF8202022F00102CCF8E0
:101EC0002020DCF8182022F0F00242EA011123F071
:101ED0000A0242EA0E02CCF81810CCF82020DCF8F6
:101EE000081041F0470121F0300180E06F2B27DD21
:101EF000B3F5005F48D0B3F5805F7AD0702B40F027
:101F00008180D1E901E3C968DCF8082043EA0E03C7
:101F100022F47F4243EA01211143CCF80810DCF897
:101F2000081041F0770162E00BB1102B6AD1DCF8A8
:101F3000081021F07001194341F0070157E000BF7C
:101F4000502B35D0602B5DD1D1F804E0C968DCF8A6
:101F50002030DCF8202022F01002CCF82020DCF821
:101F6000182022F4704242EA013123F0A00242EA32
:101F70000E12CCF81810CCF82020DCF8081041F034
:101F8000670121F0100132E0D1E901E3C968DCF812
:101F9000082043EA0E0322F47F4243EA0121114361
:101FA000CCF80810DCF8081041F480411FE000BFB5
:101FB000D1F804E0C968DCF82030DCF8202022F0F9
:101FC0000102CCF82020DCF8182022F0F00242EACE
:101FD000011123F00A0242EA0E02CCF81810CCF8E4
:101FE0002020DCF8081041F0570121F02001CCF846
:101FF00008100022012180F83D10002180F83C10DB
:10200000104680BD0122F5E77047000070B5044618
:102010000068C5680669B10716D515F0020113D02E
:102020006FF002010161012121778069800703D0EF
:102030002046FFF7E9FF05E0204600F01BF92046A7
:1020400000F07CFA00202077700719D515F0040005
:1020500016D020686FF004010161022121778069A8
:1020600010F4407F04D02046FFF7CEFF06E000BF0B
:10207000204600F0FFF8204600F060FA00202077AC
:10208000300717D515F0080014D020686FF008014C
:10209000016104212177C069800703D02046FFF742
:1020A000B3FF05E0204600F0E5F8204600F046FAD0
:1020B00000202077F00619D515F0100016D0206802
:1020C0006FF01001016108212177C06910F4407F91
:1020D00004D02046FFF798FF06E000BF204600F03E
:1020E000C9F8204600F02AFA00202077F00718BF30
:1020F00015F0010002D1300609D412E020686FF01B
:1021000001010161204600F0E5FA300609D515F01D
:10211000800006D020686FF0800101612046FFF743
:1021200075FD700609D515F0400006D020686FF0E7
:1021300040010161204600F0E5FAB00658BF70BDCD
:1021400015F0200008D021686FF0200220460A61B7
:10215000BDE87040FFF75CBD70BD000080B586B083
:10216000006840F60041C4F2000188424FF00001CF
:10217000CDE90411CDE9021134D040F20041C4F29E
:102180000001884248D0B0F1804F43D141F218009D
:10219000C4F20200016841F004010160006802A974
:1021A00000F00400019001984FF4004002900220DA
:1021B0000390059040F60000C4F20100FEF732FFE4
:1021C0000420C4F201004FF2FF320168CFF6FF0293
:1021D00002F51062114041F0E06141F4807101604C
:1021E00006B080BD41F21800C4F20200016841F05F
:1021F00004010160006802A900F004000190019848
:102200000220CDE90200059040F60000C4F2010072
:10221000FEF708FF06B080BD41F21800C4F20200CC
:10222000016841F008010160006802A900F008009F
:10223000019001981020029002200390059040F632
:102240000000C4F2010000F58060FEF7EBFE042000
:10225000C4F2010001684FF2FF32CFF6FF021140D5
:1022600001F1E06101F5807101F5E061016006B006
:1022700080BD0000704700002DE9F04190F83C302F
:10228000012B04BF0220BDE8F0814FEAB202032A0D
:1022900000F21C81DFE802F0024690DA036843F2A4
:1022A00000461D6A1A6A25F0020522F001021A6230
:1022B0001A465C6852F818EF8F68D1F800C0C4F273
:1022C0000106B34245EA070505D042F60047C4F2CD
:1022D0000107BB4205D1CF6825F00C0527F00407A4
:1022E0003D43B34205D042F60046C4F20106B34274
:1022F00005D1D1E9056724F4407434433C432EF002
:10230000730747EA0C075C609F614F6809695F6368
:102310001D629F6947F008079F619F6927F00407C6
:102320009F61C9E0036843F200461D6A1A6A25F0FE
:10233000200522F010021A621A46D3F804C052F89F
:10234000188F8F68D1F800E0C4F20106B34245EA65
:10235000071505D042F60047C4F20107BB4207D17A
:10236000CF686FF0400425F0C00504EA0714254348
:10237000B34205D042F60044C4F20104A34206D1A0
:10238000D1E905462CF44067264347EA860C28F439
:10239000E64444EA0E27C3F804C09F614F68096908
:1023A0009F631D629F6947F400679F619F6927F4DF
:1023B00080679F617FE000BF036843F200461D6AAB
:1023C0001A6A25F4007522F480721A621A46D3F84C
:1023D00004C052F81CEF8F68D1F80080C4F20106E7
:1023E000B34245EA072505D042F60047C4F201078B
:1023F000BB4208D1CF6840F2FF443F0225F440655C
:1024000027EA04042543B34205D042F60044C4F24F
:102410000104A34206D1D1E905462CF440572643D6
:1024200047EA061C2EF0730747EA0807C3F804C002
:10243000DF614F680969DF631D62DF6947F00807E4
:10244000DF61DF6927F00407DF6135E0036843F2ED
:102450000047D3F820C01A6AC4F2010722F4805260
:102460001A621A465C6852F81C5FD1F800E08E6868
:10247000BB4205D042F60047C4F20107BB4204D17B
:102480004F6924F4804444EA87142CF4005747EA47
:10249000063725F4E64646EA0E265C60DE614E68A5
:1024A00009691E641F62DF6947F40067DF61DF6945
:1024B00027F48067DF610902136819431160002166
:1024C000002280F83C200846BDE8F081012100226E
:1024D00080F83C200846BDE8F0810000002804BFD9
:1024E0000120704710B5044690F83D0028B900203F
:1024F00084F83C00204600F01FF8022084F83D00DC
:102500002068211D01F06AF9012084F8460084F852
:102510003E0084F83F0084F8400084F8410084F8CD
:10252000420084F8430084F8440084F8450084F8AD
:102530003D00002010BD0000704700007047000003
:1025400041B1082910D0042914BF00F1410200F163
:102550003F020BE090F83E20012A1CBF012070478B
:10256000022280F83E2013E000F140021278012A96
:102570001CBF012070470222082907D0042914BF7C
:1025800080F8412080F83F2002E000BF80F8402022
:10259000006801F01F010122036A02FA01F123EA37
:1025A00001020262026A114340F6FF32C4F20002E5
:1025B000904201620EDCB0F1804F25D040F2004124
:1025C000C4F2000188421FD040F60001C4F20001AD
:1025D00018E000BF40F60041C4F20001884213D069
:1025E00043F20042C4F2010242F600419042C4F2BA
:1025F000010101D088420ED1436C904243F4004364
:10260000436401D0884206D1816801F007010629A0
:1026100004BF00207047016841F001010160002003
:102620007047000010B5026801F01F0E4FF0010C5A
:10263000146A0CFA0EF324EA0303136243F2004413
:10264000136AC4F20104A242136205D042F60043A9
:10265000C4F201039A4209D1136A41F211142342D0
:1026600004D1136A40F2444423420FD0136A41F26A
:102670001114234213D1136A40F2444423420ED171
:10268000136823F00103136009E000BF536C23F4C7
:1026900000435364136A41F211142342EBD008291A
:1026A0000CD0042910D000294FF0010114BF80F88C
:1026B000411080F83E10002010BD00BF012180F8BD
:1026C0004010002010BD00BF012180F83F10002005
:1026D00010BD0000006840F20041C4F200018842D1
:1026E0000ED140F24C00C2F200000088002818BF52
:1026F000704740F23C00C2F2000001680131016005
:1027000070470000704700007047000070470000ED
:10271000B0B582B0044600680168C368426901F040
:102720002F05202D03F0200506D12DB1204602B043
:10273000BDE8B04001F046BA5FEA017C1EBF02F07E
:10274000010E03F4907212EB0E0253D1226B012A98
:1027500005D111F0100218BF13F0100236D10A068D
:1027600022D513F080021FD094F8411021293FD1C7
:10277000A168B1F5805F03D12169002900F0708262
:10278000216A4A1C226209784160E18C01390A04FD
:10279000E1842DD1C16821F08001C160C16841F0A0
:1027A0004001C16002B0B0BD490621D513F040011F
:1027B0001ED0C16821F04001C1602021204684F86C
:1027C000411002B0BDE8B04000F05CBD00210191B5
:1027D000016801914168019101994069400613D453
:1027E000A08DE18DE28D002A18BF884240F0BA81A9
:1027F00002B0B0BDCA0718BF13F4807240F0B680B3
:102800004A0700F1B980BEE0E06B016849688AB20E
:10281000002AEDD0A38D9A42EAD2E1858069202872
:1028200000F09C80206850E8030F216820F480703D
:1028300041E80302DAB1206850E8030F216820F470
:10284000807041E8030292B1206850E8030F2168CC
:1028500020F4807041E803024AB1206850E8030F79
:10286000216820F4807041E80302002ADAD1206850
:1028700050E8050F216820F0010041E80502DAB1B7
:10288000206850E8050F216820F0010041E80502AA
:1028900092B1206850E8050F216820F0010041E85E
:1028A00005024AB1206850E8050F216820F00100B8
:1028B00041E80502002ADAD1206850E8050F2168B6
:1028C00020F0400041E80502DAB1206850E8050F29
:1028D000216820F0400041E8050292B1206850E8EC
:1028E000050F216820F0400041E805024AB1206848
:1028F00050E8050F216820F0400041E80502002A59
:10290000DAD1202084F8420000202063206850E8BB
:10291000030F216820F0100041E80302DAB12068BB
:1029200050E8030F216820F0100041E8030292B143
:10293000206850E8030F216820F0100041E80302EE
:102940004AB1206850E8030F216820F0100041E8E8
:102950000302002ADAD1E06BFEF7A8F802206063D8
:10296000A08DE18D401A81B2204674E1626C42F084
:10297000010262644A0706D5BEF1000F03D0626C03
:1029800042F0020262648A0706D5BEF1000F03D04E
:10299000626C42F004026264BCF1000F09D545EAA2
:1029A0000E02B2FA82F2520903D1626C42F00802BE
:1029B0006264626C002A3FF41BAF11F0200118BF63
:1029C000002D03D0204601F0FDF820684069616CBD
:1029D00000F0400001F00801401800F0B58000BF91
:1029E000206850E8030F216820F4907041E803024A
:1029F000BAB3206850E8030F216820F4907041E8D2
:102A0000030272B3206850E8030F216820F490702D
:102A100041E803022AB3206850E8030F216820F43C
:102A2000907041E80302002ADAD11AE0206850E8E9
:102A3000050F216820F0010041E80502DAB12068A5
:102A400050E8050F216820F0010041E8050292B12D
:102A5000206850E8050F216820F0010041E80502D8
:102A60004AB1206850E8050F216820F0010041E8D4
:102A70000502002ADAD1206B012824D1206850E811
:102A8000030F216820F0100041E80302DAB120684A
:102A900050E8030F216820F0100041E8030292B1D2
:102AA000206850E8030F216820F0100041E803027D
:102AB0004AB1206850E8030F216820F0100041E877
:102AC0000302002ADAD1202084F84200002020638B
:102AD0002068406940063FD5206850E8050F21680E
:102AE00020F0400041E80502DAB1206850E8050F07
:102AF000216820F0400041E8050292B1206850E8CA
:102B0000050F216820F0400041E805024AB1206825
:102B100050E8050F216820F0400041E80502002A36
:102B2000DAD1E06BC0B143F6C501C0F600014163E4
:102B3000FDF7E0FF00283FF45BAEE06B416B02B0B5
:102B4000BDE8B040084700BF2046FFF7DFFD00208A
:102B5000606402B0B0BD00BF204602B0BDE8B04026
:102B6000FFF7D4BD401A216851E8031F226821F401
:102B7000907142E80313DBB1216851E8031F22681A
:102B800021F4907142E8031393B1216851E8031FC7
:102B9000226821F4907142E803134BB1216851E897
:102BA000031F226821F4907142E80313002BDAD14D
:102BB000216851E8051F226821F0010142E8051350
:102BC000DBB1216851E8051F226821F0010142E8CC
:102BD000051393B1216851E8051F226821F0010116
:102BE00042E805134BB1216851E8051F226821F026
:102BF000010142E80513002BDAD1202184F84210AC
:102C000000212163216851E8031F226821F010018F
:102C100042E80313DBB1216851E8031F226821F069
:102C2000100142E8031393B1216851E8031F2268A1
:102C300021F0100142E803134BB1216851E8031F52
:102C4000226821F0100142E80313002BDAD102229E
:102C500081B22046626302B0BDE8B040FFF754BDC8
:102C6000216A31F8022B6FF35F22426021628CE50A
:102C7000002804BF0120704710B5044690F84100B9
:102C800028B9002084F84000204600F063F8242092
:102C900084F841002068D4E90212C36823F4005389
:102CA000C360036923F440531A430261D4E9042347
:102CB0001143C268194341F20C639A431143C16046
:102CC0004169A26921F44071114343F60002C4F244
:102CD00001029042416103D0FEF754FD02E000BFC3
:102CE000FEF764FD6268192148439100B0FBF1F0E2
:102CF00048F21F51C5F2EB11A0FB01235A094FF610
:102D00009C73C0F6FF7302FB0300322303EB001039
:102D1000A0FB0101F02303EA5113206803EB021228
:102D2000C1F3431111448160016921F490410161B3
:102D3000416921F02A014161C16841F40051C1603B
:102D400000202021606484F8411084F84210606300
:102D500010BD00002DE9F04186B040F600050446A4
:102D6000C4F20105006805F5405100278842049728
:102D700002D006B0BDE8F08141F21806C4F20206A6
:102D800030680DF1080840F48040306030684146FA
:102D900000F4804001900198306840F004003060F9
:102DA000306800F00400019001984FF40070029028
:102DB00002200390032005902846FEF733F94FF4D4
:102DC0008060CDE90207284641460497FEF72AF9BC
:102DD00040F2F405A6F57C60C2F2000580214FF4B4
:102DE0008052C5E900072846C5E90271C5E90477A4
:102DF000C5E90672FEF764F8002818BFFDF782FAED
:102E0000252000210022E5636C62FEF791FA25205F
:102E1000FEF77AFA06B0BDE8F081000070B582B026
:102E2000044690F8420020280AD113460A46002999
:102E30004FF0010018BF002B06D102B070BD00BFDB
:102E4000022002B070BD00BF002522202563A262CF
:102E5000A385656484F842002168E06B43F64D2C3D
:102E600043F6AD3E43F6D106C0F6000CC0F6000EA8
:102E7000C0F600060431C0E90ACEC0E90C65FEF7D1
:102E80006FF80195206801680191406801900198F0
:102E9000206928B3206850E8030F216840F480704F
:102EA00041E80302E2B1206850E8030F216840F4D2
:102EB000807041E803029AB1206850E8030F21684E
:102EC00040F4807041E8030252B1206850E8030FDB
:102ED000216840F4807041E80302002ADAD100BF83
:102EE000206850E8050F216840F0010041E8050224
:102EF000E2B1206850E8050F216840F0010041E888
:102F000005029AB1206850E8050F216840F00100E1
:102F100041E8050252B1206850E8050F216840F0F1
:102F2000010041E80502002ADAD100BF206850E81C
:102F3000050F216840F0400041E80502DAB1206841
:102F400050E8050F216840F0400041E8050292B1C9
:102F5000206850E8050F216840F0400041E8050274
:102F60004AB1206850E8050F216840F0400041E870
:102F70000502002ADAD1002002B070BD006843F6D5
:102F80000001C4F20101884218BF704740F24400BA
:102F9000C2F200000178FF2933D1C179FF2930D175
:102FA0000179A9B1807901380D282AD8DFE800F02D
:102FB00008343C444C545C649C6C7C848C9400BF0E
:102FC00040F20400C2F200000121018019E000BFBC
:102FD00040F20401C2F2000110220A80B0F8011090
:102FE00040F22802C2F20002118040F22A01C278A7
:102FF000C2F2000140790A8040F22C01C2F20001C5
:10300000088040F2102040F24401C2F20000C2F2F7
:1030100000010822FFF702BF40F20400C2F20000E4
:1030200002210180EDE700BF40F20400C2F200007F
:1030300003210180E5E700BF40F23400C2F2000046
:1030400000210180DDE700BF40F20400C2F2000071
:1030500005210180D5E700BF40F20400C2F2000064
:1030600006210180CDE700BF40F20400C2F200005B
:1030700007210180C5E700BF40F23400C2F2000022
:1030800001210180BDE700BF40F23800C2F200001C
:1030900040F204020188C2F200020A2300291380D0
:1030A0001CBF14390180ACE740F23000C2F20000CE
:1030B00001210180A5E700BF40F23000C2F200000C
:1030C000022101809DE700BF40F23200C2F2000001
:1030D0000021018095E700BF40F23200C2F20000FB
:1030E000012101808DE700BF40F23800C2F20000EC
:1030F00040F204020188C2F200020923642913800D
:103100001CBF143101807CE7704700002DE9F041BD
:10311000044690F8410020281CBF0220BDE8F08141
:103120000D4600294FF0010000F0AA801646002A43
:1031300008BFBDE8F081002060642120984684F833
:103140004100FEF773F8A684E684A1680646B1F54F
:10315000805F02D12069002862D02F460025E08CD4
:10316000002861D018F1010018D0B8F1000F37D154
:10317000216808E017F8010B4860E08C0138E08412
:10318000E08C002851D00868000673D5002FF1D1DB
:1031900035F8020B00276FF35F20EDE7216802E0AE
:1031A0000868000609D40868000606D40868000606
:1031B0005CBF08685FEA0060F2D51FB117F8010B29
:1031C00005E000BF35F8020B00276FF35F20486071
:1031D000E08C0138E084E08C0028E4D125E000BFD9
:1031E000216800BF0868000608D4FEF71FF8801B9E
:1031F000404541D82168C868F4E700BF17B117F807
:10320000010B04E035F8020B00276FF35F204860E4
:10321000E08C0138E084E08C0028E3D105E000BFB9
:103220000027E08C00289DD12168086840061FD443
:10323000B8F1000F1ED018F101000FD10868400648
:1032400016D40868400613D40868400610D40868ED
:1032500040064FF00000F1D50FE000BFFDF7E6FF9C
:10326000801B404508D82068C16800684006F5D535
:10327000002002E0FDF7DAFF0320202184F841104E
:10328000BDE8F08170470000FEE70000B0B58AB0ED
:1032900040F2500042F200410024C2F20000C4F2A9
:1032A00001014FF4807201254FF46023C0E900143E
:1032B00002210994CDE90744CDE905440394CDE901
:1032C000014405730475C36182600161FDF718FA5A
:1032D000002818BFFDF716F84FF4000004904FF4D3
:1032E000FA60CDE9070440F25000C2F2000004A9E0
:1032F0008DF81850FDF796F8002818BFFDF702F872
:1033000008200190012002900720039040F2500015
:10331000C2F2000001A9FDF7AFF8002818BFFCF7C2
:10332000F1FF092001900220029040F25000C2F209
:10333000000001A9FDF7A0F8002818BFFCF7E2FF84
:103340000AB0B0BDB0B58AB040F2800042F60002CB
:103350000021C2F20000C4F2010201244FF46023F4
:10336000CDE90811CDE906110391CDE901110473EE
:103370000175C361C0E9002181600461FDF7C0F9F6
:10338000002818BFFCF7BEFF40F20020C0F280000A
:10339000049040F6FF7007904FF47F60089040F271
:1033A00080000425C2F2000004A905958DF818409C
:1033B000FDF738F8002818BFFCF7A4FF0120CDE97D
:1033C000020040F28000C2F2000001A90195FDF761
:1033D00053F8002818BFFCF795FF0AB0B0BD0000F5
:1033E00080B582B041F21400C4F2020001680022EC
:1033F00041F0010101600068002100F0010001902E
:1034000001980B20FDF794FF0B20FDF77DFF0F20A7
:1034100000210022FDF78CFF0F2002B0BDE88040A4
:10342000FDF772BF2DE9F04F85B041F21800C4F2EC
:103430000200016840F6004B41F020010160016884
:10344000C4F2010B01F02001019101990168ABF573
:10345000806541F0040101600168002201F004016F
:10346000019101990168EC2741F0100101600168A8
:103470004FF0000801F0100101910199016841F03D
:10348000080101600068EC2100F00800019001983B
:103490002846FDF7C5FE0BF5806630464FF44161C6
:1034A00000224FF4416AFDF7BBFE58464FF48051AD
:1034B00001224FF00109FDF7B3FE584660210022BA
:1034C000FDF7AEFECDE9017901AF02242846394669
:1034D000CDF80C800494FDF7A5FD30463946CDE9C2
:1034E00001A9CDE90384FDF79DFD4FF48350CDE99B
:1034F000010958463946CDE90384FDF793FD05B02F
:10350000BDE8F08F10B58EB040F238100021C2F245
:10351000000044F61F640D91CDE90B110991CDE92E
:103520000711CDE90511CDE90311CDE901114FF0E6
:1035300080424723C0E9021401618021C0E90023D1
:103540008161FEF7B1FB002818BFFCF7DBFE4FF4EA
:1035500080500A9040F23810C2F200000AA9FEF72B
:1035600085FC002818BFFCF7CDFE40F23810C2F2EF
:103570000000FEF7B3FF002818BFFCF7C3FE40F2BF
:1035800038100024C2F2000008A9CDE90844FEF773
:1035900041FB002818BFFCF7B5FE602001904FF4F6
:1035A0004860CDE9020440F23810C2F2000001A9DF
:1035B00000220594FEF760FE002818BFFCF7A2FE6B
:1035C00040F23810C2F20000FEF7C8FD0EB010BD88
:1035D00010B58EB040F280100021C2F2000040F21F
:1035E000004242F20F740D91CDE90B110991CDE922
:1035F0000711CDE90511CDE90311CDE90111C4F29F
:1036000000024723C0E9021401618021C0E90023C0
:103610008161FEF749FB002818BFFCF773FE4FF4E9
:1036200080500A9040F28010C2F200000AA9FEF712
:103630001DFC002818BFFCF765FE40F28010C2F2A6
:103640000000FEF74BFF002818BFFCF75BFE40F2BE
:1036500080100024C2F2000008A9CDE90844FEF75A
:10366000D9FA002818BFFCF74DFE6020019041F206
:103670008830CDE9020440F28010C2F2000001A9B6
:1036800000220594FEF7F8FD002818BFFCF73AFE6B
:1036900040F28010C2F20000FEF760FD0EB010BDD7
:1036A00010B58EB040F2C8100021C2F2000040F602
:1036B00000424FF47A740D91CDE90B110991CDE9D7
:1036C0000711CDE90511CDE90311CDE90111C4F2CE
:1036D00000024723C0E9021401618021C0E90023F0
:1036E0008161FEF7E1FA002818BFFCF70BFE4FF4EA
:1036F00080500A9040F2C810C2F200000AA9FEF7FA
:10370000B5FB002818BFFCF7FDFD40F2C810C2F25F
:103710000000FEF7E3FE002818BFFCF7F3FD40F2BF
:10372000C8100024C2F2000008A9CDE90844FEF741
:1037300071FA002818BFFCF7E5FD602001900A200F
:10374000CDE9020440F2C810C2F2000001A904222F
:103750000594FEF791FD002818BFFCF7D3FD40F259
:10376000C810C2F20000FEF7F9FC0EB010BD000058
:1037700080B540F2102043F60001C2F20000C4F20E
:10378000010100234FF00C0C4FF4165280E80E009C
:10379000C0E90333C0E905C3C361FFF769FA002834
:1037A00008BF80BDBDE88040FCF7ACBDFEE700006F
:1037B000FEE700007047000070470000FDF73CBDC9
:1037C0007047000040F23810C2F20000FEF71EBC45
:1037D00040F28010C2F20000FEF718BC10B540F6AF
:1037E000FF3E0368C4F2000E43F2004C7045C4F281
:1037F000010C21DCB0F1804F2CD040F20042C4F229
:103800000002904226D040F60002C4F2000290422C
:1038100020D0704524DCB0F1804F2FD040F2004220
:10382000C4F20002904229D040F60002C4F2000225
:10383000904223D026E000BF40F60042C4F20002CE
:10384000904207D0604505D042F60042C4F2010222
:103850009042DED14A6823F0700313437045DADDED
:1038600040F60042C4F20002904207D0604505D005
:1038700042F60042C4F20102904203D1CA6823F426
:103880004073134323F080024B69D1F800E08C6849
:103890001A4360450260C462C0F828E005D042F6D1
:1038A0000042C4F20102904201D109690163012181
:1038B00041610169C90708BF10BD016921F001011B
:1038C000016110BD406A0021C185C184FEF71EBFA1
:1038D000406A01684A6990F84130212B2DD112F0DD
:1038E00080022AD00021C184016851E8031F0268C8
:1038F00021F0C00142E80313DBB1016851E8031F66
:10390000026821F0C00142E8031393B1016851E855
:10391000031F026821F0C00142E803134BB10168A4
:1039200051E8031F026821F0C00142E80313002B95
:10393000DAD1202180F841100168496990F84220CD
:10394000222A40F07D8011F0400179D00021C1850C
:10395000016851E8031F026821F4907142E80313E3
:10396000BBB3016851E8031F026821F4907142E87B
:10397000031373B3016851E8031F026821F49071C7
:1039800042E803132BB3016851E8031F026821F4D6
:10399000907142E80313002BDAD11AE0016851E874
:1039A000051F026821F0010142E80513DBB101683F
:1039B00051E8051F026821F0010142E8051393B1A7
:1039C000016851E8051F026821F0010142E8051372
:1039D0004BB1016851E8051F026821F0010142E87E
:1039E0000513002BDAD1016B012924D1016851E8BC
:1039F000031F026821F0100142E80313DBB10168E4
:103A000051E8031F026821F0100142E8031393B14B
:103A1000016851E8031F026821F0100142E8031316
:103A20004BB1016851E8031F026821F0100142E820
:103A30000313002BDAD1202180F84210002101630A
:103A4000416C41F010014164FEF760BE0168406ABC
:103A50000968890600F19F800021C185016851E84D
:103A6000031F026821F4807142E80313E3B1016887
:103A700051E8031F026821F4807142E803139BB1EF
:103A8000016851E8031F026821F4807142E80313C2
:103A900053B1016851E8031F026821F4807142E8C4
:103AA0000313002BDAD100BF016851E8051F02683B
:103AB00021F0010142E80513BBB3016851E8051F7D
:103AC000026821F0010142E8051373B3016851E86F
:103AD000051F026821F0010142E805132BB30168BC
:103AE00051E8051F026821F0010142E80513002B8F
:103AF000DAD11AE0016851E8051F026821F040019F
:103B000042E80513DBB1016851E8051F026821F0A6
:103B1000400142E8051393B1016851E8051F0268AE
:103B200021F0400142E805134BB1016851E8051F3F
:103B3000026821F0400142E80513002BDAD1202170
:103B400080F84210016B012925D100BF016851E8BE
:103B5000031F026821F0100142E80313DBB1016882
:103B600051E8031F026821F0100142E8031393B1EA
:103B7000016851E8031F026821F0100142E80313B5
:103B80004BB1016851E8031F026821F0100142E8BF
:103B90000313002BDAD100214163016B012918BF07
:103BA000FFF7ECB9818DFEF7AFBD0000406A01213F
:103BB0004163016B012918BFFFF7A6BA818D49083F
:103BC000FEF7A2BD81B090F84210222921D183686E
:103BD0000246B3F5805F09D152F8281F52F8183C0D
:103BE000002B63D003685B680AE000BF52F8281F0F
:103BF00013B90369002BF5D003685B6803F07F03FA
:103C00000B70116801311160C18D01390A04C18541
:103C100002D001B0704700BF0168CA6822F02002DC
:103C2000CA60CA6822F48072CA604A6922F001023E
:103C30004A61202180F8421000214163026B012A71
:103C40003CD10163016851E8031F026821F01001B3
:103C500042E80313DBB1016851E8031F026821F059
:103C6000100142E8031393B1016851E8031F026891
:103C700021F0100142E803134BB1016851E8031F22
:103C8000026821F0100142E80313002BDAD1016829
:103C90000A68D20606D5002200920A680092496896
:103CA00000910099818D01B0FEF72EBD0268526827
:103CB0006FF35F2221F8022B8162A5E701B0FFF7C5
:103CC0005DB9000040F21020C2F20000FEF720BDF6
:103CD000FEE70000B0B582B040F21024C2F200044A
:103CE00001AD019020462946012240F6B833FFF786
:103CF0000DFA0028F6D1019802B0B0BD96B0FDF7DC
:103D0000A9FA00240120CDE91144CDE90F440C901B
:103D100010904FF4E0104FF48031022515900CA85C
:103D20000694CDE90444CDE90244CDE90D14CDE972
:103D30001351FDF77BFD28B1EFF3108072B600BF81
:103D4000FEE700BF0F20CDE907054FF48060CDE905
:103D50000A0407A802210994FDF734FC20B1EFF30F
:103D6000108072B6FEE700BF022001904FF4404081
:103D7000039001A8FDF7A0FB20B1EFF3108072B60D
:103D8000FEE700BF40F60004C4F20104FFF74AFB5F
:103D9000FFF726FBFFF71CFCFFF778FAFFF780FC24
:103DA000FFF7D0FAFFF7E4FCFFF7ACFB04F5006582
:103DB00028464FF400610122FDF732FA04F5806ACB
:103DC000504640210122FDF72BFA40F22809C2F2A9
:103DD000000940F2102009F11C01C2F20000082283
:103DE000FFF71CF840F28006C2F200063046FCF7EE
:103DF0008FFA3046FCF7F0FD204620210122FDF726
:103E00000FFA2046402100224FF0000BFDF708FA80
:103E1000204680210122FDF703FA284610210022C6
:103E2000FDF7FEF94FF4FA70FDF7E8F8204620217F
:103E30000022FDF7F5F9204640210022FDF7F0F9B8
:103E4000204680210022FDF7EBF9284610210022B0
:103E5000FDF7E6F93046FCF7D7FB014644F2EA40AD
:103E6000C0F6000000F062FAB9F8061044F2FD4016
:103E7000C0F6000000F05AFA40F2040640F2801743
:103E800040F2C818C2F20006C2F20007C2F20008EF
:103E9000CDF800A00BE000BFFDF7C2F940F23810EA
:103EA000C2F200000021FEF74BFBA6F800B03088FC
:103EB00001380F28FBD8DFE800F00B1117091D218E
:103EC0002909313B09090909094500BFEFE700BF8E
:103ED00028464FF480610122DEE700BF28464FF4F8
:103EE00080610022D8E700BF40F23810C2F2000023
:103EF0000DE000BF50462021002202E05046202164
:103F00000122FDF78DF93846CCE700BF3846002185
:103F1000FEF788FBA6F800B0C9E700BFB9F81000AB
:103F200014280AD140460C21FEF70AFBBFE700BF68
:103F3000B9F81000002800F0D381D8F80010086408
:103F4000B5E700BF40F28000C2F20000FCF75CFB66
:103F5000014644F2EA40C0F6000000F0E7F9B9F883
:103F6000061044F2FD40C0F6000000F0DFF9B9F899
:103F70000A10B9F80400012904BF4000A9F80400A0
:103F8000000400F0BE814FF000081AE0B168484319
:103F9000FDF734F830690130306140F23810C2F278
:103FA00000000021FEF73EFBB9F8040008F101080B
:103FB0008045A9F80EB0C9F814B0A9F808B080F08F
:103FC000A081204620210122FDF72AF92046402128
:103FD0000022FDF725F9204680210022FDF720F977
:103FE000284610210122FDF71BF94FF4FA70FDF766
:103FF00005F8204620210022FDF712F92046402135
:104000000022FDF70DF9204680210022FDF708F976
:10401000284610210022FDF703F940F28006C2F283
:1040200000063046FCF774F93046FCF7D5FC5046E4
:1040300020210022FDF7F4F83846FDF7B5FE38469A
:104040000021C9F814B0FEF77BFAB9F8060050B9A0
:10405000B9F80800012806D00A20FCF7CFFFB9F80C
:1040600006000028F4D038460021FEF7DBFA384677
:10407000FDF7DEFE40F28000C2F20000FCF7C4FA59
:10408000014644F2EA40C0F6000000F04FF9B9F8EA
:10409000061044F2FD40C0F6000000F047F9B9F800
:1040A0000000002845D0204680210122FDF7B8F805
:1040B000284610210022FDF7B3F84FF4FA70FCF700
:1040C0009DFF204680210022FDF7AAF828461021F6
:1040D0000022FDF7A5F8B9F80800012800F00681D4
:1040E000B9F800004FF4C87644F6D35B7043C1F2D0
:1040F000620BA0FB0B018809C9F818003846FDF7D0
:1041000053FE38460021FEF71BFAB9F80000704351
:10411000A0FB0B01880900EB800040004FF0000B72
:10412000FCF76CFF38460021FEF77CFA3846FDF7B5
:104130007FFEB9F80C0028B1012811D14FF0000A18
:10414000012202E04FF0010A002220462021FDF763
:1041500067F8204640215246FDF762F8DDF800A0DE
:10416000204680210022FDF75BF82846102101221D
:10417000FDF756F84FF4FA70FCF740FF2046202177
:104180000022FDF74DF8204640210022FDF748F8B7
:10419000204680210022FDF743F828461021002206
:1041A000FDF73EF8B9F8020080B100264FF47A70AE
:1041B000FCF724FFB9F80800411E012908D9B9F815
:1041C000020001368642F1D305E000BFB9F80800CD
:1041D000012800F09680204620210122FDF720F8DA
:1041E000204640210022FDF71BF8204680210122B5
:1041F000FDF716F8284610210022FDF711F84FF4BC
:10420000FA70FCF7FBFE204620210022FDF708F89B
:10421000204640210022FDF703F82046802100229D
:10422000FCF7FEFF284610210022FCF7F9FFD9F821
:10423000141044F2EA40C0F6000000F077F8D9F814
:104240001400202100EB8000460050460122FCF7BC
:10425000E7FF38460021FEF773F93046FCF7CEFE43
:1042600038460021FEF7DEF944F2FD40C0F60000BA
:104270000021A9F806B000F059F8B9F80A000128A1
:1042800024D118F0010121D028464FF4806100228A
:10429000FCF7C6FF40F23810C2F200000021FEF722
:1042A0004FF940F20406C2F2000631694AF6AB2229
:1042B000CAF6AA227068514311F1AA3FBFF466AE54
:1042C000F1684843FCF79AFE012065E600287FF478
:1042D0006BAEB9F8040001388045BFF665AED3E790
:1042E00040460C21FEF79EF9E1E500BF44F2FD4097
:1042F000C0F600000021A9F806B0C9F814B000F01B
:1043000015F840F2040644F2FD40C2F20006C0F681
:1043100000006421A9F808B0A6F800B000F006F883
:1043200040F2C818C2F20008C1E500000FB4054B06
:1043300010B503A9044A029800F018F810BC5DF803
:1043400014FB0000D53C00080000002002E008C873
:10435000121F08C1002AFAD170477047002001E0FF
:1043600001C1121F002AFBD1704700002DE9FF4F49
:1043700089B09B460446002506E025280BD05A4606
:104380000B999047641C6D1C20780028F5D10DB066
:104390002846BDE8F08F0027B8460122474900E0D3
:1043A000074314F8013F203B02FA03F00842F7D11B
:1043B00020782E2819D114F8010F47F004072A2875
:1043C0000ED06FF02F022078A0F1300109290CD80F
:1043D00008EB880102EB410100EB0108641CF2E7E5
:1043E0000A98641C50F8048B0A9020780028CED0DC
:1043F000642808D0692806D075281ED05A460B9923
:1044000090476D1C58E00A994FF00A0901C90A91BA
:10441000002802DA40422D2102E0390504D52B2183
:104420008DF82010012103E0F90704D02021F7E7DF
:104430008A4608AE0DE00021FAE70A994FF00A0912
:1044400001C90A91F7E74946FBF78EFE303106F8BD
:10445000011D0028F7D1ADEB060000F12009780717
:1044600001D44FF00108C84502DDA8EB090000E0C7
:1044700000208046002706E008A85A46C05D0B9938
:1044800090476D1C7F1C5745F6DB04E030205A46F0
:104490000B9990476D1CB8F10001A8F10108F5DCFB
:1044A00005E016F8010B5A460B9990476D1CB9F1BF
:1044B0000001A9F10109F4DC641C65E70928010089
:1044C00000000000000000000102030406070809C4
:1044D00000000000010203040102020304050607B4
:1044E00008090A0B0C0D0E0F101070616765312E54
:1044F0006E332E76616C3D2564FFFFFF00706167AF
:1045000065312E6E342E76616C3D2564FFFFFF0011
:104510003045000800000020280000004C4300083F
:104520005845000828000020380600005C430008B9
:104530000000000014000000140000002100000032
:104540002200000001000000010000001000000037
:084550000024F400000000004B
:0400000508000131BD
:00000001FF
